:100000000C9462000C948A000C948A000C948A0070
:100010000C948A000C948A000C948A000C946A0355
:100020000C948A000C948A000C948A000C948F0320
:100030000C948A000C948A000C948A000C948A0018
:100040000C9420030C948A000C948A000C948A006F
:100050000C948A000C948A000C948A000C948A00F8
:100060000C948A000C948A000000000023002600F3
:10007000290000000008000201000003040700003E
:1000800000000000000000000000250028002B00F8
:1000900000000000240027002A00040404040404D3
:1000A0000404020202020202030303030303010227
:1000B00004081020408001020408102001020408F6
:1000C0001020FC0511241FBECFEFD8E0DEBFCDBF4E
:1000D00011E0A0E0B1E0E2EBFDE002C005900D927E
:1000E000A030B107D9F721E0A0E0B1E001C01D9236
:1000F000AE34B207E1F710E0C2E6D0E004C02197C9
:10010000FE010E94D106C136D107C9F70E944B04F7
:100110000C94D7060C9400008F929F92AF92BF92DE
:10012000FF920F931F93CF93DF93F0904B012BE03F
:100130002F1508F44CC020914D0108E512E0021B78
:10014000110927FD1395000F111F000F111F20919A
:100150004C01C8E8D0E0C21BD10927FDD395CC0FD4
:10016000DD1FCC0FDD1F4E010D2E000CAA08BB08B1
:100170009801012E000C440B550B281939094A0926
:100180005B09DC010E948C0624EB30E040E050E08B
:100190000E946206820E931EA41EB51E8C169D063A
:1001A0002CF0E801801691060CF4E4012297CC0FA4
:1001B000DD1F2FB7F8948F2D90E0FC01EE0FFF1F8D
:1001C000E80FF91FE95DFE4FD283C1832FBFDF9196
:1001D000CF911F910F91FF90BF90AF909F908F9004
:1001E000089590E0FC01E255FF4F249186569F4F01
:1001F000FC018491882399F090E0880F991FFC01FD
:10020000E057FF4FA591B491FC01EA57FF4F85914C
:1002100094918FB7F894EC91E22BEC938FBF0895F3
:1002200090E0FC01EE58FF4F2491FC01E255FF4F96
:100230003491FC01E656FF4FE491EE23C9F02223EE
:1002400039F0233001F1A8F4213019F1223029F1DD
:10025000F0E0EE0FFF1FEA57FF4FA591B4918FB763
:10026000F894EC91611126C030953E233C938FBFEA
:1002700008952730A9F02830C9F0243049F780913B
:1002800080008F7D03C0809180008F7780938000F5
:10029000DFCF84B58F7784BDDBCF84B58F7DFBCF77
:1002A0008091B0008F778093B000D2CF8091B00062
:1002B0008F7DF9CF3E2BDACF1F93CF93DF93182F8B
:1002C000EB010E94F100209739F460E0812FDF916B
:1002D000CF911F910C941001E12FF0E0EE58FF4FE9
:1002E000E491E33011F148F4E130B9F0E23069F71C
:1002F00084B5806284BDC8BD14C0E73001F1E83028
:1003000031F1E43011F780918000806280938000A9
:10031000D0938B00C0938A0004C084B5806884BDEC
:10032000C7BDDF91CF911F910895809180008068B3
:1003300080938000D0938900C0938800F2CF809191
:10034000B00080688093B000C093B300EACF809182
:10035000B00080628093B000C093B400E2CF8E50B2
:10036000806480937C0080917A00806480937A001E
:1003700080917A0086FDFCCF809178009091790081
:1003800008953FB7F8948091100190911101A091C8
:100390001201B091130126B5A89B05C02F3F19F09B
:1003A0000196A11DB11D3FBFBA2FA92F982F8827F5
:1003B000BC01CD01620F711D811D911D42E0660FD0
:1003C000771F881F991F4A95D1F708958F929F92A2
:1003D000AF92BF92CF92DF92EF92FF924B015C01FE
:1003E0000E94C1016B017C010E94C1016C197D0951
:1003F0008E099F09683E734081059105A8F321E0AD
:10040000821A9108A108B10888EEC80E83E0D81EB0
:10041000E11CF11C81149104A104B10429F7FF909F
:10042000EF90DF90CF90BF90AF909F908F90089506
:1004300070E060E085E00E945C0170E060E08AE0CE
:100440000C945C0164E670E085E00E945C0164E667
:1004500070E08AE00E945C0160E086E00E9410018A
:1004600061E087E00E94100161E088E00E941001D5
:1004700060E089E00C94100164E670E085E00E9481
:100480005C0164E670E08AE00E945C0161E086E065
:100490000E94100160E087E00E94100160E088E0A7
:1004A0000E94100161E089E00C94100164E670E0A4
:1004B00085E00E945C0164E670E08AE00E945C01D5
:1004C00061E086E00E94100160E087E00E94100178
:1004D00061E088E00E94100160E089E00C94100166
:1004E0000F931F93E0911E01F0911F018081909165
:1004F0001801892B8083E0911A01F0911B01808102
:1005000090911801892B80838BE290E00197F1F79D
:10051000E0911A01F0911B01908180911801809562
:100520008923808380912601882351F0E0911E0168
:10053000F0911F019081809118018095892380831B
:10054000E0911C01F0911D01808190911901892396
:1005500029F090E080E01F910F9108950E94C10161
:10056000AB01BC018091200190912101B0E0A0E09D
:100570008855994EAF4FBF4F840F951FA61FB71FC9
:100580008093220190932301A0932401B09325012D
:10059000E0911C01F0911D01808190911901892346
:1005A00081F40E94C1010091220110912301209148
:1005B000240130912501061717072807390740F74E
:1005C000C8CF0E94C1012091200130912101620F0A
:1005D000731F811D911D60932201709323018093ED
:1005E000240190932501E0911C01F0911D0180816F
:1005F00090911901892381F00E94C101009122018B
:10060000109123012091240130912501061717072D
:100610002807390740F79DCF0E94C1012091200192
:1006200030912101A90145505109209122013091B9
:100630002301FA01E21BF30BCF01860F971F8BCF2B
:100640001F920F920FB60F9211242F933F938F9307
:100650009F93AF93BF9380910C0190910D01A09156
:100660000E01B0910F0130910B0123E0230F2D37C4
:1006700058F50196A11DB11D20930B0180930C012B
:1006800090930D01A0930E01B0930F018091100182
:1006900090911101A0911201B09113010196A11D39
:1006A000B11D8093100190931101A0931201B0939A
:1006B0001301BF91AF919F918F913F912F910F9017
:1006C0000FBE0F901F90189526E8230F0296A11DCC
:1006D000B11DD2CF1F920F920FB60F9211242F93FC
:1006E0003F934F935F936F937F938F939F93AF93BA
:1006F000BF93EF93FF93F0E0E0E00995FF91EF9156
:10070000BF91AF919F918F917F916F915F914F9129
:100710003F912F910F900FBE0F901F9018951F9231
:100720000F920FB60F9211242F933F934F935F9325
:100730006F937F938F939F93AF93BF93CF93DF93E9
:10074000EF93FF9380910501C0910401D0E087FFF2
:1007500024C01092850010928400809105018F5F63
:100760008093050180910501082E000C990B8C17D0
:100770009D0724F4809105018C30C4F180918400A0
:1007800090918500049680349C4908F47AC0809149
:10079000840090918500049676C080910501082E12
:1007A000000C990B8C179D07C4F6E09105018E2F64
:1007B000EE0F990BFC01EE0FFF1FE80FF91FE95D2B
:1007C000FE4F808186FFC9CFE09105018E2FEE0F8D
:1007D000990BFC01EE0FFF1FE80FF91FE95DFE4FBB
:1007E000808160E08F730E941001B7CF2091840058
:1007F00030918500E09105018E2FEE0F990BFC01E1
:10080000EE0FFF1FE80FF91FE95DFE4F8181928116
:10081000820F931F9093890080938800E0910501D7
:100820008E2FEE0F990BFC01EE0FFF1FE80FF91F43
:10083000E95DFE4F808186FF11C0E09105018E2F9A
:10084000EE0F990BFC01EE0FFF1FE80FF91FE95D9A
:10085000FE4F808161E08F730E941001FF91EF9144
:10086000DF91CF91BF91AF919F918F917F916F91C8
:100870005F914F913F912F910F900FBE0F901F905E
:10088000189580E49CE990938900809388008FEF0D
:1008900080930501E3CF789484B5826084BD84B5EC
:1008A000816084BD85B5826085BD85B5816085BD6B
:1008B00080916E00816080936E0010928100809123
:1008C00081008260809381008091810081608093AB
:1008D0008100809180008160809380008091B100D0
:1008E00084608093B1008091B00081608093B000FB
:1008F00080917A00846080937A0080917A0082608F
:1009000080937A0080917A00816080937A00809150
:100910007A00806880937A001092C10085E00E947E
:10092000F10086E00E94F10087E00E94F10088E07B
:100930000E94F10089E00E94F1008AE00E94F1002B
:100940008BE00E94F10060E08BE00E94100180913A
:100950004B018C3008F050C08CE00E94F100809177
:100960004B01282F30E0F901EE0FFF1FE20FF31FBC
:10097000E95DFE4F9081907C9C60908310924C01C9
:1009800010924D012CE0622F0E94C506829FB0019B
:10099000112430E020E0AB01420F531FFA01EE0FAB
:1009A000FF1FE40FF51FE95DFE4F908196FD16C015
:1009B0002F5F3F4F2C30310571F781110FC010921E
:1009C000800082E080938100109285001092840064
:1009D000B19A80916F00826080936F00E0914B012B
:1009E0008E2F90E0FC01EE0FFF1FE80FF91FE95D6D
:1009F000FE4F8081806480838AE590E00E948C00B5
:100A000089E3C82ED12CE12CF12C00E010E09924D0
:100A100093948EE00E94AF01EC018FE00E94AF0141
:100A20005C0180E10E94AF01C23523E0D2074CF0A7
:100A300022E5A21623E0B20624F0823523E09207D5
:100A4000ACF490920A012FB7F89440910C015091A8
:100A50000D0160910E0170910F012FBF40930601AF
:100A600050930701609308017093090120910A01D6
:100A7000222309F122E5A21623E0B2066CF40E94BB
:100A8000560261E08BE00E9410010115110509F486
:100A9000C0CF0E940000BDCFC235D3401CF40E94DD
:100AA0003C02EFCF823593401CF40E942202E9CF32
:100AB0000E941802E6CF2FB7F89480910C01909114
:100AC0000D01A0910E01B0910F012FBF40910601C1
:100AD000509107016091080170910901841B950BE9
:100AE000A60BB70B81339547A105B10570F20E94A3
:100AF0007002BC0190E080E0A70196010E9494067C
:100B0000215031092732310508F073C00E941802C4
:100B100064EF71E080E090E00E94E60164E670E03E
:100B200085E00E945C0164E670E08AE00E945C015E
:100B300060E086E00E94100161E087E00E94100101
:100B400060E088E00E94100161E089E00E941001ED
:100B500064EF71E080E090E00E94E6010E941802DC
:100B600064EF71E080E090E00E94E60184EB90E0A9
:100B70000E948C0064EF71E080E090E00E94E6014A
:100B80000E947002BC0190E080E0A70196010E94E3
:100B90009406E90190E080E00E948C0064EF71E02F
:100BA00080E090E00E94E6010E9470025C018AE50C
:100BB00090E00E948C0064EF71E080E090E00E9481
:100BC000E601209751F0B50190E080E0A701960181
:100BD0000E9494062C173D074CF40E943C026CEBDB
:100BE00072E080E090E00E94E6014FCF0E94220276
:100BF000F6CF0E94560249CFEBEBF0E02491209310
:100C00001801E9EBF0E0E491E093190187EA90E044
:100C1000FC013491E32FF0E0EE0FFF1FEA57FF4F86
:100C20004591549150931B0140931A01E5EAF0E07D
:100C3000E491F0E0EE0FFF1FE859FF4F459154910A
:100C400050931D0140931C01FC018491E82FF0E0BA
:100C5000EE0FFF1FE057FF4FA591B491B0931F0116
:100C6000A0931E011092260189E499E59093210139
:100C700080932001EC912E2B2C93E0911A01F0919E
:100C80001B01908180911801809589238083809138
:100C900004018C3098F491E0980F909304018093B4
:100CA0004B0190E0FC01EE0FFF1FE80FF91FE95D1B
:100CB000FE4F88EB9BE09283818308958FEF8093B2
:100CC0004B010895052E97FB1EF400940E947906AF
:100CD00057FD07D00E94940607FC03D04EF40C94F5
:100CE000790650954095309521953F4F4F4F5F4F76
:100CF000089590958095709561957F4F8F4F9F4F88
:100D000008950E94B606A59F900DB49F900DA49FD4
:100D1000800D911D11240895B7FF0C9481060E9447
:100D20008106821B930B0895A1E21A2EAA1BBB1BFE
:100D3000FD010DC0AA1FBB1FEE1FFF1FA217B307A7
:100D4000E407F50720F0A21BB30BE40BF50B661FBD
:100D5000771F881F991F1A9469F760957095809581
:100D600090959B01AC01BD01CF010895A29FB001F8
:100D7000B39FC001A39F700D811D1124911DB29FCF
:100D8000700D811D1124911D0895991B79E004C0F7
:100D9000991F961708F0961B881F7A95C9F78095BA
:100DA0000895EE0FFF1F0590F491E02D0994F8943B
:020DB000FFCF73
:00000001FF
